:207000007E700310CE06CC10FF0086CC0149FD0080FD0082FD0084BD715F8E707ABD71581C
:2070200010FE00867F0093BD715FBE0080BF00888E0000BF008C7D00932605863ABD78038C
:20704000BD71B4BD7322240E292DBD7290810427DFBD723720CA3410BE0082BC00843510D1
:2070600027037E7180C30000270D340683270F350622048D1720B97E717754494E5920568F
:20708000312E3338204D4336383039043406BD7290BF008EA6E4BE0088BC0082270510A368
:2070A000842403BE0080BD7403BF0088252BBF008A3002A680810426FABC00822712A68039
:2070C000BF0090BE008AA780BF008ABE009020E9BE008ABF0082BF0084BE008EC6FF5CA673
:2070E00080810426F95D2603326239301FCB04301F5AA684812027F78604A7014FBE0082A8
:20710000BF0090F30082FD0082FD0084BD739A2409BF0082BF00847E716FBE0082BF008A49
:20712000BE0090BC0088270CA682BF0090BE008AA78220E93506BE0088ED81BF0090BE009D
:207140008EA680BF008EBE0090A780BF0090810426EC39BD78033001A684810426F5398EA0
:2071600071688DF47F0092390D0A7F000000048D26534F525259048D1E57484154203F0439
:207180008D15484F57203F048D0D425245414B048D0553544F50048DC68607BD7803FC0009
:2071A0008CBD76A88620BD780335108DAB8DB07E70208DAB8E0100BD77F881202514817FF5
:2071C00027F58C0148260486072002A780BD780320E581082725811827D8810A2732810DA2
:2071E00026D57D00932705BD780320073410BD715F35108604A7848E0100398C010027B7FB
:20720000301F8608BD78038620BD7803860820BD1A0176009320B630018D75810426F8BD83
:207220007571B6008CBA008D2716BC008226037E7180EC81FD008CBD77F38D0825033406B8
:20724000397E75828D4ABF00888E778EA68081042606BE00881A0139BF0090BE0088BF000A
:207260008EBE008EA18426193001BF008EBE0090A680BF0090810426E8EC84BE008E1CFE26
:2072800039BE0090A680810426FA300220BE3001A684812027F8398D1A24228141251181D2
:2072A00046220D80371CFE3981412504815A230D1A0139813025F9813922F580301CFE3962
:2072C0008DCE8DE425131F89A6018DDC24E23001C041584FF300861CFE39BD75503406BDCE
:2072E0007290812C270981291A0127157E71773001BD74833402BD72908129350226ED1C5E
:20730000FE3001BF0088ADF1BE00881CFE39BD7290812D260D30018D092506405082001C00
:20732000FC39BD7290BD72B3242F81241A01266030016FE26FE2A684BD7297254F30013442
:20734000103402EC6385F0264A5849584958495849EBE0ED62351020DD300134026FE2A675
:2073600084BD72B32526300134103402EC63584929215849291DE363291958492915EBE45A
:207380008900290FED633261351020D335061CFE1CFD39AE6132651A033910FF008AFC00D9
:2073A0008A830030B3008439BD753D34063410E6F802351032624F39BD753D3406BD72908A
:2073C000813D27037E71773001BD7483BD75713410E7F802351032627E7222BD7290BF0049
:2073E000888E73ECBD724C25023406395553520472DA5045454B0473A84D454D04739A0481
:20740000BE0080BC008226031A033910A38426031CFC3924051A011CFD3934028604300139
:207420003001A18426FA3502300120D78D5534065FBD7290813D2723813C261030015CBDF8
:207440007290813E26113001CB042013813E265F3001CB04BD7290813D26043001CB0234E4
:20746000048D203410A3631FA8441F8948483404ABE0840626014C5FA4622701534F35109A
:207480003263396FE26FE2BD7290812D2717812B260230018D1CE3E4EDE4BD7290812B27F9
:2074A000F1812D260A30018D094050820020E7350639BD75253406BD7290812A2748812F8F
:2074C000270335063930018D5C341030623406A884BD756430E4BD75643402861134024F26
:2074E0005FA3622406E3621CFE20021A016967696659496AE426EAA66132644D2A04306219
:207500008D66351020B130018D1B3404E6623DA661E761E6E43DA662E76235043DABE4AB75
:2075200061EDE42092BD72C0250934101F01EC84351039BD732224FABD73DB24F58D113492
:2075400002BD72908129350226033001397E7177BD739A24037E716FBD7290812826EE3095
:20756000017E74836D842A086084600124026A84393402BD7290810427037E717730013570
:207580000239BD72C024037E71773406BD7290813D27037E71773001BD74838DD4BF008860
:2075A0003510ED84BE00887E7222BD742C5D27037E72377E7219BD74838DB6BD740025104C
:2075C0007E7232BD74838DA9BF0088BD740024037E7180BD739A24037E716FFC0088340684
:2075E000FC008C3406BD72323506FD008C35107E7222BD7290812C2736813B273E810427B7
:20760000258122260630018D432009BD748334108D483510BD7290812C2714813B271C8113
:207620000427037E71773410BD715F35102015C6078620BD7803F5009226F63001BD72902D
:20764000810426B130017E7222BD7803A680810426037E7177812226F0394D2A0D40508291
:20766000003402862DBD780335028E769C300210A38424058C76A626F47F009010A3842553
:2076800007A3847C009020F434028630BB0090BD780335028C76A62704300220DC39271085
:2076A00003E80064000A00018E76A020CCBD72C0253F3406BF0088863FBD7803BD71B4BD70
:2076C0007290810427F1BD730E240B8E7706BD7158BD715F20E1BF008E3510ED84BE008836
:2076E000BD7290812C27037E721F3001BD72C024037E717734063410BE008EBD7290812C02
:2077000026BD300120B952452D454E54455204BE008686346F804A26FBBE00807E722ABDC9
:20772000732224094F5FFD0088867F2019FD0088BD7290812C2705B60088200A3001BD7330
:207740002224037E7177BD75713406FC0088BF0088BD7400BC00822728350610A384252855
:207760003406EC813410BD76A835108620BD7803BD715830013410BD715F3510BD77F3200C
:20778000D332628603BD7803BE00887E72224C455404758249460475AA474F544F0475B66F
:2077A000474F5355420475C352455455524E047571504F4B450473B85052494E540475F2ED
:2077C000494E5055540476AD52454D04721953544F50047190454E4404719052554E0477E8
:2077E0000F4C49535404771F4E455704700B3F0475F204BD7822270ABD7809810326037E9C
:207800007188397C00927E78138D1727FCB6C001847F393402B6C000850227F93502B7C0A4
:1578200001393402B6C00085202705B6C00120F485013502391B
:00000001FF
